{
  "_format": "hh-sol-artifact-1",
  "contractName": "CrumbsRewardManager",
  "sourceName": "contracts/CrumbsRewardManager.sol",
  "abi": [
    {
      "inputs": [
        {
          "internalType": "address",
          "name": "_tokenAddress",
          "type": "address"
        }
      ],
      "stateMutability": "payable",
      "type": "constructor"
    },
    {
      "anonymous": false,
      "inputs": [
        {
          "indexed": false,
          "internalType": "uint256",
          "name": "fromUserId",
          "type": "uint256"
        },
        {
          "indexed": false,
          "internalType": "uint256",
          "name": "toUserId",
          "type": "uint256"
        },
        {
          "indexed": false,
          "internalType": "uint256",
          "name": "fromUserLikesGiven",
          "type": "uint256"
        },
        {
          "indexed": false,
          "internalType": "uint256",
          "name": "toUserLikesReceived",
          "type": "uint256"
        }
      ],
      "name": "LikeAdded",
      "type": "event"
    },
    {
      "anonymous": false,
      "inputs": [
        {
          "indexed": false,
          "internalType": "uint256",
          "name": "userId",
          "type": "uint256"
        },
        {
          "indexed": false,
          "internalType": "enum CrumbsRewardManager.Membership",
          "name": "newMembership",
          "type": "uint8"
        }
      ],
      "name": "MembershipChanged",
      "type": "event"
    },
    {
      "anonymous": false,
      "inputs": [
        {
          "indexed": true,
          "internalType": "address",
          "name": "previousOwner",
          "type": "address"
        },
        {
          "indexed": true,
          "internalType": "address",
          "name": "newOwner",
          "type": "address"
        }
      ],
      "name": "OwnershipTransferred",
      "type": "event"
    },
    {
      "anonymous": false,
      "inputs": [
        {
          "indexed": false,
          "internalType": "uint256",
          "name": "userId",
          "type": "uint256"
        },
        {
          "indexed": false,
          "internalType": "uint256",
          "name": "count",
          "type": "uint256"
        }
      ],
      "name": "ReviewAdded",
      "type": "event"
    },
    {
      "anonymous": false,
      "inputs": [
        {
          "indexed": false,
          "internalType": "uint256",
          "name": "userId",
          "type": "uint256"
        },
        {
          "indexed": false,
          "internalType": "uint256",
          "name": "newBalance",
          "type": "uint256"
        }
      ],
      "name": "UserBalanceChanged",
      "type": "event"
    },
    {
      "anonymous": false,
      "inputs": [
        {
          "indexed": false,
          "internalType": "uint256",
          "name": "userId",
          "type": "uint256"
        },
        {
          "indexed": false,
          "internalType": "uint256",
          "name": "amount",
          "type": "uint256"
        }
      ],
      "name": "UserWithdrawal",
      "type": "event"
    },
    {
      "inputs": [
        {
          "internalType": "uint256",
          "name": "fromUserId",
          "type": "uint256"
        },
        {
          "internalType": "uint256",
          "name": "toUserId",
          "type": "uint256"
        }
      ],
      "name": "addLike",
      "outputs": [],
      "stateMutability": "nonpayable",
      "type": "function"
    },
    {
      "inputs": [
        {
          "internalType": "uint256",
          "name": "userId",
          "type": "uint256"
        }
      ],
      "name": "addReview",
      "outputs": [],
      "stateMutability": "nonpayable",
      "type": "function"
    },
    {
      "inputs": [
        {
          "internalType": "uint256",
          "name": "userId",
          "type": "uint256"
        },
        {
          "internalType": "enum CrumbsRewardManager.Membership",
          "name": "membership",
          "type": "uint8"
        }
      ],
      "name": "buyMembership",
      "outputs": [],
      "stateMutability": "nonpayable",
      "type": "function"
    },
    {
      "inputs": [
        {
          "internalType": "enum CrumbsRewardManager.Membership",
          "name": "",
          "type": "uint8"
        }
      ],
      "name": "membershipPrice",
      "outputs": [
        {
          "internalType": "uint256",
          "name": "",
          "type": "uint256"
        }
      ],
      "stateMutability": "view",
      "type": "function"
    },
    {
      "inputs": [],
      "name": "owner",
      "outputs": [
        {
          "internalType": "address",
          "name": "",
          "type": "address"
        }
      ],
      "stateMutability": "view",
      "type": "function"
    },
    {
      "inputs": [],
      "name": "renounceOwnership",
      "outputs": [],
      "stateMutability": "nonpayable",
      "type": "function"
    },
    {
      "inputs": [],
      "name": "tokenAddress",
      "outputs": [
        {
          "internalType": "address",
          "name": "",
          "type": "address"
        }
      ],
      "stateMutability": "view",
      "type": "function"
    },
    {
      "inputs": [
        {
          "internalType": "address",
          "name": "newOwner",
          "type": "address"
        }
      ],
      "name": "transferOwnership",
      "outputs": [],
      "stateMutability": "nonpayable",
      "type": "function"
    },
    {
      "inputs": [
        {
          "internalType": "uint256",
          "name": "",
          "type": "uint256"
        }
      ],
      "name": "userLikesGivenCount",
      "outputs": [
        {
          "internalType": "uint256",
          "name": "",
          "type": "uint256"
        }
      ],
      "stateMutability": "view",
      "type": "function"
    },
    {
      "inputs": [
        {
          "internalType": "uint256",
          "name": "",
          "type": "uint256"
        }
      ],
      "name": "userLikesReceivedCount",
      "outputs": [
        {
          "internalType": "uint256",
          "name": "",
          "type": "uint256"
        }
      ],
      "stateMutability": "view",
      "type": "function"
    },
    {
      "inputs": [
        {
          "internalType": "uint256",
          "name": "",
          "type": "uint256"
        }
      ],
      "name": "userMembership",
      "outputs": [
        {
          "internalType": "enum CrumbsRewardManager.Membership",
          "name": "",
          "type": "uint8"
        }
      ],
      "stateMutability": "view",
      "type": "function"
    },
    {
      "inputs": [
        {
          "internalType": "uint256",
          "name": "",
          "type": "uint256"
        }
      ],
      "name": "userReviewsCount",
      "outputs": [
        {
          "internalType": "uint256",
          "name": "",
          "type": "uint256"
        }
      ],
      "stateMutability": "view",
      "type": "function"
    },
    {
      "inputs": [
        {
          "internalType": "uint256",
          "name": "",
          "type": "uint256"
        }
      ],
      "name": "userTokensBalance",
      "outputs": [
        {
          "internalType": "uint256",
          "name": "",
          "type": "uint256"
        }
      ],
      "stateMutability": "view",
      "type": "function"
    },
    {
      "inputs": [
        {
          "internalType": "uint256",
          "name": "userId",
          "type": "uint256"
        },
        {
          "internalType": "uint256",
          "name": "amount",
          "type": "uint256"
        },
        {
          "internalType": "address",
          "name": "userAddress",
          "type": "address"
        }
      ],
      "name": "withdrawTokens",
      "outputs": [],
      "stateMutability": "nonpayable",
      "type": "function"
    }
  ],
  "bytecode": "0x6080604052604051620017973803806200179783398181016040528101906200002991906200024e565b620000496200003d6200011860201b60201c565b6200012060201b60201c565b80600160006101000a81548173ffffffffffffffffffffffffffffffffffffffff021916908373ffffffffffffffffffffffffffffffffffffffff160217905550600a6007600060016002811115620000a757620000a662000280565b5b6002811115620000bc57620000bb62000280565b5b815260200190815260200160002081905550601e60076000600280811115620000ea57620000e962000280565b5b6002811115620000ff57620000fe62000280565b5b81526020019081526020016000208190555050620002af565b600033905090565b60008060009054906101000a900473ffffffffffffffffffffffffffffffffffffffff169050816000806101000a81548173ffffffffffffffffffffffffffffffffffffffff021916908373ffffffffffffffffffffffffffffffffffffffff1602179055508173ffffffffffffffffffffffffffffffffffffffff168173ffffffffffffffffffffffffffffffffffffffff167f8be0079c531659141344cd1fd0a4f28419497f9722a3daafe3b4186f6b6457e060405160405180910390a35050565b600080fd5b600073ffffffffffffffffffffffffffffffffffffffff82169050919050565b60006200021682620001e9565b9050919050565b620002288162000209565b81146200023457600080fd5b50565b60008151905062000248816200021d565b92915050565b600060208284031215620002675762000266620001e4565b5b6000620002778482850162000237565b91505092915050565b7f4e487b7100000000000000000000000000000000000000000000000000000000600052602160045260246000fd5b6114d880620002bf6000396000f3fe608060405234801561001057600080fd5b50600436106100ea5760003560e01c80637733d7aa1161008c5780639d76ea58116100665780639d76ea5814610247578063db1ddf9014610265578063e4f4052814610295578063f2fde38b146102c5576100ea565b80637733d7aa146101dd5780638d7a5c161461020d5780638da5cb5b14610229576100ea565b80633ea86f56116100c85780633ea86f561461016b578063524db26b14610187578063715018a6146101a357806371e446a6146101ad576100ea565b8063147f2331146100ef5780631a75fc8e1461011f578063398fa84d1461014f575b600080fd5b61010960048036038101906101049190610dae565b6102e1565b6040516101169190610dea565b60405180910390f35b61013960048036038101906101349190610dae565b6102f9565b6040516101469190610e7c565b60405180910390f35b61016960048036038101906101649190610ef5565b610319565b005b61018560048036038101906101809190610dae565b6104e2565b005b6101a1600480360381019061019c9190610f6d565b6105f3565b005b6101ab610863565b005b6101c760048036038101906101c29190610dae565b610877565b6040516101d49190610dea565b60405180910390f35b6101f760048036038101906101f29190610dae565b61088f565b6040516102049190610dea565b60405180910390f35b61022760048036038101906102229190610fad565b6108a7565b005b610231610b27565b60405161023e9190610ffc565b60405180910390f35b61024f610b50565b60405161025c9190610ffc565b60405180910390f35b61027f600480360381019061027a9190610dae565b610b76565b60405161028c9190610dea565b60405180910390f35b6102af60048036038101906102aa9190611017565b610b8e565b6040516102bc9190610dea565b60405180910390f35b6102df60048036038101906102da9190611044565b610ba6565b005b60046020528060005260406000206000915090505481565b60066020528060005260406000206000915054906101000a900460ff1681565b610321610c29565b82828060056000848152602001908152602001600020541015610379576040517f08c379a0000000000000000000000000000000000000000000000000000000008152600401610370906110ce565b60405180910390fd5b836005600087815260200190815260200160002054610398919061111d565b60056000878152602001908152602001600020819055506000600160009054906101000a900473ffffffffffffffffffffffffffffffffffffffff1690508073ffffffffffffffffffffffffffffffffffffffff1663a9059cbb85876040518363ffffffff1660e01b8152600401610411929190611151565b6020604051808303816000875af1158015610430573d6000803e3d6000fd5b505050506040513d601f19601f8201168201806040525081019061045491906111b2565b507f2004784110f57bafdf02a2b6159280c110150214ef620956816d4bdddd90a7008660056000898152602001908152602001600020546040516104999291906111df565b60405180910390a17f1adca21f9cd7ce0d42e86da154f61d9ace5bc419c2549655fea1d3e432693c1286866040516104d29291906111df565b60405180910390a1505050505050565b6104ea610c29565b6001600260008381526020019081526020016000205461050a9190611208565b6002600083815260200190815260200160002081905550600a60056000838152602001908152602001600020546105419190611208565b60056000838152602001908152602001600020819055507f99100dfc6bff1852b86ea0768056ca9069e6f41680c1906c6f44c832d008a80981600260008481526020019081526020016000205460405161059c9291906111df565b60405180910390a17f2004784110f57bafdf02a2b6159280c110150214ef620956816d4bdddd90a7008160056000848152602001908152602001600020546040516105e89291906111df565b60405180910390a150565b6105fb610c29565b816007600083600281111561061357610612610e05565b5b600281111561062557610624610e05565b5b815260200190815260200160002054806005600084815260200190815260200160002054101561068a576040517f08c379a0000000000000000000000000000000000000000000000000000000008152600401610681906110ce565b60405180910390fd5b82600281111561069d5761069c610e05565b5b6006600086815260200190815260200160002060009054906101000a900460ff1660028111156106d0576106cf610e05565b5b10610710576040517f08c379a0000000000000000000000000000000000000000000000000000000008152600401610707906112aa565b60405180910390fd5b6007600084600281111561072757610726610e05565b5b600281111561073957610738610e05565b5b8152602001908152602001600020546005600086815260200190815260200160002054610766919061111d565b6005600086815260200190815260200160002081905550826006600086815260200190815260200160002060006101000a81548160ff021916908360028111156107b3576107b2610e05565b5b02179055507f4b5fa4931009fbde58c3563e2d0b9766ba499dbaba48f2f7788f2bd990c96278846006600087815260200190815260200160002060009054906101000a900460ff166040516108099291906112ca565b60405180910390a17f2004784110f57bafdf02a2b6159280c110150214ef620956816d4bdddd90a7008460056000878152602001908152602001600020546040516108559291906111df565b60405180910390a150505050565b61086b610c29565b6108756000610ca7565b565b60056020528060005260406000206000915090505481565b60026020528060005260406000206000915090505481565b6108af610c29565b8160018060056000848152602001908152602001600020541015610908576040517f08c379a00000000000000000000000000000000000000000000000000000000081526004016108ff906110ce565b60405180910390fd5b82840361094a576040517f08c379a00000000000000000000000000000000000000000000000000000000081526004016109419061133f565b60405180910390fd5b6001600360008681526020019081526020016000205461096a9190611208565b6003600086815260200190815260200160002081905550600160046000858152602001908152602001600020546109a19190611208565b6004600085815260200190815260200160002081905550600160056000868152602001908152602001600020546109d8919061111d565b600560008681526020019081526020016000208190555060016005600085815260200190815260200160002054610a0f9190611208565b60056000858152602001908152602001600020819055507f0c1ad82cc8013538fbeb282ceb72498d67e3bf43b189a198dc6aa32f12652b40848460036000888152602001908152602001600020546004600088815260200190815260200160002054604051610a81949392919061135f565b60405180910390a17f2004784110f57bafdf02a2b6159280c110150214ef620956816d4bdddd90a700846005600087815260200190815260200160002054604051610acd9291906111df565b60405180910390a17f2004784110f57bafdf02a2b6159280c110150214ef620956816d4bdddd90a700836005600086815260200190815260200160002054604051610b199291906111df565b60405180910390a150505050565b60008060009054906101000a900473ffffffffffffffffffffffffffffffffffffffff16905090565b600160009054906101000a900473ffffffffffffffffffffffffffffffffffffffff1681565b60036020528060005260406000206000915090505481565b60076020528060005260406000206000915090505481565b610bae610c29565b600073ffffffffffffffffffffffffffffffffffffffff168173ffffffffffffffffffffffffffffffffffffffff1603610c1d576040517f08c379a0000000000000000000000000000000000000000000000000000000008152600401610c1490611416565b60405180910390fd5b610c2681610ca7565b50565b610c31610d6b565b73ffffffffffffffffffffffffffffffffffffffff16610c4f610b27565b73ffffffffffffffffffffffffffffffffffffffff1614610ca5576040517f08c379a0000000000000000000000000000000000000000000000000000000008152600401610c9c90611482565b60405180910390fd5b565b60008060009054906101000a900473ffffffffffffffffffffffffffffffffffffffff169050816000806101000a81548173ffffffffffffffffffffffffffffffffffffffff021916908373ffffffffffffffffffffffffffffffffffffffff1602179055508173ffffffffffffffffffffffffffffffffffffffff168173ffffffffffffffffffffffffffffffffffffffff167f8be0079c531659141344cd1fd0a4f28419497f9722a3daafe3b4186f6b6457e060405160405180910390a35050565b600033905090565b600080fd5b6000819050919050565b610d8b81610d78565b8114610d9657600080fd5b50565b600081359050610da881610d82565b92915050565b600060208284031215610dc457610dc3610d73565b5b6000610dd284828501610d99565b91505092915050565b610de481610d78565b82525050565b6000602082019050610dff6000830184610ddb565b92915050565b7f4e487b7100000000000000000000000000000000000000000000000000000000600052602160045260246000fd5b60038110610e4557610e44610e05565b5b50565b6000819050610e5682610e34565b919050565b6000610e6682610e48565b9050919050565b610e7681610e5b565b82525050565b6000602082019050610e916000830184610e6d565b92915050565b600073ffffffffffffffffffffffffffffffffffffffff82169050919050565b6000610ec282610e97565b9050919050565b610ed281610eb7565b8114610edd57600080fd5b50565b600081359050610eef81610ec9565b92915050565b600080600060608486031215610f0e57610f0d610d73565b5b6000610f1c86828701610d99565b9350506020610f2d86828701610d99565b9250506040610f3e86828701610ee0565b9150509250925092565b60038110610f5557600080fd5b50565b600081359050610f6781610f48565b92915050565b60008060408385031215610f8457610f83610d73565b5b6000610f9285828601610d99565b9250506020610fa385828601610f58565b9150509250929050565b60008060408385031215610fc457610fc3610d73565b5b6000610fd285828601610d99565b9250506020610fe385828601610d99565b9150509250929050565b610ff681610eb7565b82525050565b60006020820190506110116000830184610fed565b92915050565b60006020828403121561102d5761102c610d73565b5b600061103b84828501610f58565b91505092915050565b60006020828403121561105a57611059610d73565b5b600061106884828501610ee0565b91505092915050565b600082825260208201905092915050565b7f696e73756666696369656e742066756e64730000000000000000000000000000600082015250565b60006110b8601283611071565b91506110c382611082565b602082019050919050565b600060208201905081810360008301526110e7816110ab565b9050919050565b7f4e487b7100000000000000000000000000000000000000000000000000000000600052601160045260246000fd5b600061112882610d78565b915061113383610d78565b925082821015611146576111456110ee565b5b828203905092915050565b60006040820190506111666000830185610fed565b6111736020830184610ddb565b9392505050565b60008115159050919050565b61118f8161117a565b811461119a57600080fd5b50565b6000815190506111ac81611186565b92915050565b6000602082840312156111c8576111c7610d73565b5b60006111d68482850161119d565b91505092915050565b60006040820190506111f46000830185610ddb565b6112016020830184610ddb565b9392505050565b600061121382610d78565b915061121e83610d78565b9250827fffffffffffffffffffffffffffffffffffffffffffffffffffffffffffffffff03821115611253576112526110ee565b5b828201905092915050565b7f43616e206f6e6c792075706772616465206d656d626572736869700000000000600082015250565b6000611294601b83611071565b915061129f8261125e565b602082019050919050565b600060208201905081810360008301526112c381611287565b9050919050565b60006040820190506112df6000830185610ddb565b6112ec6020830184610e6d565b9392505050565b7f757365722063616e6e6f74206c696b65207468656d73656c7665730000000000600082015250565b6000611329601b83611071565b9150611334826112f3565b602082019050919050565b600060208201905081810360008301526113588161131c565b9050919050565b60006080820190506113746000830187610ddb565b6113816020830186610ddb565b61138e6040830185610ddb565b61139b6060830184610ddb565b95945050505050565b7f4f776e61626c653a206e6577206f776e657220697320746865207a65726f206160008201527f6464726573730000000000000000000000000000000000000000000000000000602082015250565b6000611400602683611071565b915061140b826113a4565b604082019050919050565b6000602082019050818103600083015261142f816113f3565b9050919050565b7f4f776e61626c653a2063616c6c6572206973206e6f7420746865206f776e6572600082015250565b600061146c602083611071565b915061147782611436565b602082019050919050565b6000602082019050818103600083015261149b8161145f565b905091905056fea264697066735822122073cf0ccee14afbe1b4d1e6b44777a6d1c03394978ba61caaf7a76572cc8995c164736f6c634300080f0033",
  "linkReferences": {},
  "deployedLinkReferences": {}
}