{
  "_format": "hh-sol-artifact-1",
  "contractName": "CrumbsRewardManager",
  "sourceName": "contracts/CrumbsRewardManager.sol",
  "abi": [
    {
      "inputs": [
        {
          "internalType": "address",
          "name": "_tokenAddress",
          "type": "address"
        }
      ],
      "stateMutability": "nonpayable",
      "type": "constructor"
    },
    {
      "anonymous": false,
      "inputs": [
        {
          "indexed": false,
          "internalType": "uint256",
          "name": "fromUserId",
          "type": "uint256"
        },
        {
          "indexed": false,
          "internalType": "uint256",
          "name": "toUserId",
          "type": "uint256"
        },
        {
          "indexed": false,
          "internalType": "uint256",
          "name": "fromUserLikesGiven",
          "type": "uint256"
        },
        {
          "indexed": false,
          "internalType": "uint256",
          "name": "toUserLikesReceived",
          "type": "uint256"
        }
      ],
      "name": "LikeAdded",
      "type": "event"
    },
    {
      "anonymous": false,
      "inputs": [
        {
          "indexed": false,
          "internalType": "uint256",
          "name": "userId",
          "type": "uint256"
        },
        {
          "indexed": false,
          "internalType": "uint256",
          "name": "count",
          "type": "uint256"
        }
      ],
      "name": "ReviewAdded",
      "type": "event"
    },
    {
      "anonymous": false,
      "inputs": [
        {
          "indexed": false,
          "internalType": "uint256",
          "name": "userId",
          "type": "uint256"
        },
        {
          "indexed": false,
          "internalType": "uint256",
          "name": "newBalance",
          "type": "uint256"
        }
      ],
      "name": "UserBalanceChanged",
      "type": "event"
    },
    {
      "inputs": [
        {
          "internalType": "uint256",
          "name": "fromUserId",
          "type": "uint256"
        },
        {
          "internalType": "uint256",
          "name": "toUserId",
          "type": "uint256"
        }
      ],
      "name": "addLike",
      "outputs": [],
      "stateMutability": "nonpayable",
      "type": "function"
    },
    {
      "inputs": [
        {
          "internalType": "uint256",
          "name": "userId",
          "type": "uint256"
        }
      ],
      "name": "addReview",
      "outputs": [],
      "stateMutability": "nonpayable",
      "type": "function"
    },
    {
      "inputs": [],
      "name": "owner",
      "outputs": [
        {
          "internalType": "address payable",
          "name": "",
          "type": "address"
        }
      ],
      "stateMutability": "view",
      "type": "function"
    },
    {
      "inputs": [],
      "name": "tokenAddress",
      "outputs": [
        {
          "internalType": "address",
          "name": "",
          "type": "address"
        }
      ],
      "stateMutability": "view",
      "type": "function"
    },
    {
      "inputs": [
        {
          "internalType": "uint256",
          "name": "",
          "type": "uint256"
        }
      ],
      "name": "userLikesGivenCount",
      "outputs": [
        {
          "internalType": "uint256",
          "name": "",
          "type": "uint256"
        }
      ],
      "stateMutability": "view",
      "type": "function"
    },
    {
      "inputs": [
        {
          "internalType": "uint256",
          "name": "",
          "type": "uint256"
        }
      ],
      "name": "userLikesReceivedCount",
      "outputs": [
        {
          "internalType": "uint256",
          "name": "",
          "type": "uint256"
        }
      ],
      "stateMutability": "view",
      "type": "function"
    },
    {
      "inputs": [
        {
          "internalType": "uint256",
          "name": "",
          "type": "uint256"
        }
      ],
      "name": "userReviewsCount",
      "outputs": [
        {
          "internalType": "uint256",
          "name": "",
          "type": "uint256"
        }
      ],
      "stateMutability": "view",
      "type": "function"
    },
    {
      "inputs": [
        {
          "internalType": "uint256",
          "name": "",
          "type": "uint256"
        }
      ],
      "name": "userTokensBalance",
      "outputs": [
        {
          "internalType": "uint256",
          "name": "",
          "type": "uint256"
        }
      ],
      "stateMutability": "view",
      "type": "function"
    }
  ],
  "bytecode": "0x608060405234801561001057600080fd5b50604051610af0380380610af08339818101604052810190610032919061011c565b336000806101000a81548173ffffffffffffffffffffffffffffffffffffffff021916908373ffffffffffffffffffffffffffffffffffffffff16021790555080600160006101000a81548173ffffffffffffffffffffffffffffffffffffffff021916908373ffffffffffffffffffffffffffffffffffffffff16021790555050610149565b600080fd5b600073ffffffffffffffffffffffffffffffffffffffff82169050919050565b60006100e9826100be565b9050919050565b6100f9816100de565b811461010457600080fd5b50565b600081519050610116816100f0565b92915050565b600060208284031215610132576101316100b9565b5b600061014084828501610107565b91505092915050565b610998806101586000396000f3fe608060405234801561001057600080fd5b50600436106100885760003560e01c80638d7a5c161161005b5780638d7a5c16146101395780638da5cb5b146101555780639d76ea5814610173578063db1ddf901461019157610088565b8063147f23311461008d5780633ea86f56146100bd57806371e446a6146100d95780637733d7aa14610109575b600080fd5b6100a760048036038101906100a29190610623565b6101c1565b6040516100b4919061065f565b60405180910390f35b6100d760048036038101906100d29190610623565b6101d9565b005b6100f360048036038101906100ee9190610623565b6102e2565b604051610100919061065f565b60405180910390f35b610123600480360381019061011e9190610623565b6102fa565b604051610130919061065f565b60405180910390f35b610153600480360381019061014e919061067a565b610312565b005b61015d610586565b60405161016a91906106fb565b60405180910390f35b61017b6105aa565b6040516101889190610737565b60405180910390f35b6101ab60048036038101906101a69190610623565b6105d0565b6040516101b8919061065f565b60405180910390f35b60046020528060005260406000206000915090505481565b600160026000838152602001908152602001600020546101f99190610781565b6002600083815260200190815260200160002081905550600a60056000838152602001908152602001600020546102309190610781565b60056000838152602001908152602001600020819055507f99100dfc6bff1852b86ea0768056ca9069e6f41680c1906c6f44c832d008a80981600260008481526020019081526020016000205460405161028b9291906107d7565b60405180910390a17f2004784110f57bafdf02a2b6159280c110150214ef620956816d4bdddd90a7008160056000848152602001908152602001600020546040516102d79291906107d7565b60405180910390a150565b60056020528060005260406000206000915090505481565b60026020528060005260406000206000915090505481565b600160056000848152602001908152602001600020541015610369576040517f08c379a00000000000000000000000000000000000000000000000000000000081526004016103609061085d565b60405180910390fd5b8082036103ab576040517f08c379a00000000000000000000000000000000000000000000000000000000081526004016103a2906108c9565b60405180910390fd5b600160036000848152602001908152602001600020546103cb9190610781565b6003600084815260200190815260200160002081905550600160046000838152602001908152602001600020546104029190610781565b60046000838152602001908152602001600020819055506001600560008481526020019081526020016000205461043991906108e9565b6005600084815260200190815260200160002081905550600160056000838152602001908152602001600020546104709190610781565b60056000838152602001908152602001600020819055507f0c1ad82cc8013538fbeb282ceb72498d67e3bf43b189a198dc6aa32f12652b408282600360008681526020019081526020016000205460046000868152602001908152602001600020546040516104e2949392919061091d565b60405180910390a17f2004784110f57bafdf02a2b6159280c110150214ef620956816d4bdddd90a70082600560008581526020019081526020016000205460405161052e9291906107d7565b60405180910390a17f2004784110f57bafdf02a2b6159280c110150214ef620956816d4bdddd90a70081600560008481526020019081526020016000205460405161057a9291906107d7565b60405180910390a15050565b60008054906101000a900473ffffffffffffffffffffffffffffffffffffffff1681565b600160009054906101000a900473ffffffffffffffffffffffffffffffffffffffff1681565b60036020528060005260406000206000915090505481565b600080fd5b6000819050919050565b610600816105ed565b811461060b57600080fd5b50565b60008135905061061d816105f7565b92915050565b600060208284031215610639576106386105e8565b5b60006106478482850161060e565b91505092915050565b610659816105ed565b82525050565b60006020820190506106746000830184610650565b92915050565b60008060408385031215610691576106906105e8565b5b600061069f8582860161060e565b92505060206106b08582860161060e565b9150509250929050565b600073ffffffffffffffffffffffffffffffffffffffff82169050919050565b60006106e5826106ba565b9050919050565b6106f5816106da565b82525050565b600060208201905061071060008301846106ec565b92915050565b6000610721826106ba565b9050919050565b61073181610716565b82525050565b600060208201905061074c6000830184610728565b92915050565b7f4e487b7100000000000000000000000000000000000000000000000000000000600052601160045260246000fd5b600061078c826105ed565b9150610797836105ed565b9250827fffffffffffffffffffffffffffffffffffffffffffffffffffffffffffffffff038211156107cc576107cb610752565b5b828201905092915050565b60006040820190506107ec6000830185610650565b6107f96020830184610650565b9392505050565b600082825260208201905092915050565b7f7a65726f2062616c616e63650000000000000000000000000000000000000000600082015250565b6000610847600c83610800565b915061085282610811565b602082019050919050565b600060208201905081810360008301526108768161083a565b9050919050565b7f757365722063616e6e6f74206c696b65207468656d73656c7665730000000000600082015250565b60006108b3601b83610800565b91506108be8261087d565b602082019050919050565b600060208201905081810360008301526108e2816108a6565b9050919050565b60006108f4826105ed565b91506108ff836105ed565b92508282101561091257610911610752565b5b828203905092915050565b60006080820190506109326000830187610650565b61093f6020830186610650565b61094c6040830185610650565b6109596060830184610650565b9594505050505056fea264697066735822122004be1a9675c226a152e32b0be6a65a2a385cbce92940c02fabe58fe7759779e864736f6c634300080f0033",
  "linkReferences": {},
  "deployedLinkReferences": {}
}